{
  "_format": "hh-sol-artifact-1",
  "contractName": "Raffle",
  "sourceName": "contracts/Raffle.sol",
  "abi": [
    {
      "inputs": [
        {
          "internalType": "address",
          "name": "vrfCoordinatorV2",
          "type": "address"
        },
        {
          "internalType": "uint256",
          "name": "_entranceFee",
          "type": "uint256"
        }
      ],
      "stateMutability": "nonpayable",
      "type": "constructor"
    },
    {
      "inputs": [
        {
          "internalType": "address",
          "name": "have",
          "type": "address"
        },
        {
          "internalType": "address",
          "name": "want",
          "type": "address"
        }
      ],
      "name": "OnlyCoordinatorCanFulfill",
      "type": "error"
    },
    {
      "inputs": [],
      "name": "Raffle__NotEnoughETHEntered",
      "type": "error"
    },
    {
      "anonymous": false,
      "inputs": [
        {
          "indexed": true,
          "internalType": "address",
          "name": "player",
          "type": "address"
        }
      ],
      "name": "RaffleEnter",
      "type": "event"
    },
    {
      "inputs": [],
      "name": "enterRaffle",
      "outputs": [],
      "stateMutability": "payable",
      "type": "function"
    },
    {
      "inputs": [],
      "name": "getEntraceFee",
      "outputs": [
        {
          "internalType": "uint256",
          "name": "",
          "type": "uint256"
        }
      ],
      "stateMutability": "view",
      "type": "function"
    },
    {
      "inputs": [
        {
          "internalType": "uint256",
          "name": "index",
          "type": "uint256"
        }
      ],
      "name": "getPlayer",
      "outputs": [
        {
          "internalType": "address",
          "name": "",
          "type": "address"
        }
      ],
      "stateMutability": "view",
      "type": "function"
    },
    {
      "inputs": [],
      "name": "pickRandomWinner",
      "outputs": [],
      "stateMutability": "nonpayable",
      "type": "function"
    },
    {
      "inputs": [
        {
          "internalType": "uint256",
          "name": "requestId",
          "type": "uint256"
        },
        {
          "internalType": "uint256[]",
          "name": "randomWords",
          "type": "uint256[]"
        }
      ],
      "name": "rawFulfillRandomWords",
      "outputs": [],
      "stateMutability": "nonpayable",
      "type": "function"
    }
  ],
  "bytecode": "0x60c060405234801561001057600080fd5b506040516107fb3803806107fb83398181016040528101906100329190610110565b818073ffffffffffffffffffffffffffffffffffffffff1660808173ffffffffffffffffffffffffffffffffffffffff1681525050508060a081815250505050610150565b600080fd5b600073ffffffffffffffffffffffffffffffffffffffff82169050919050565b60006100a78261007c565b9050919050565b6100b78161009c565b81146100c257600080fd5b50565b6000815190506100d4816100ae565b92915050565b6000819050919050565b6100ed816100da565b81146100f857600080fd5b50565b60008151905061010a816100e4565b92915050565b6000806040838503121561012757610126610077565b5b6000610135858286016100c5565b9250506020610146858286016100fb565b9150509250929050565b60805160a051610678610183600039600081816101c301526102c9015260008181610103015261015701526106786000f3fe60806040526004361061004a5760003560e01c80631fe543e31461004f5780632cfcc53914610078578063898da22914610082578063ce147cf314610099578063e55ae4e8146100c4575b600080fd5b34801561005b57600080fd5b50610076600480360381019061007191906104db565b610101565b005b6100806101c1565b005b34801561008e57600080fd5b506100976102c3565b005b3480156100a557600080fd5b506100ae6102c5565b6040516100bb9190610546565b60405180910390f35b3480156100d057600080fd5b506100eb60048036038101906100e69190610561565b6102ed565b6040516100f891906105cf565b60405180910390f35b7f000000000000000000000000000000000000000000000000000000000000000073ffffffffffffffffffffffffffffffffffffffff163373ffffffffffffffffffffffffffffffffffffffff16146101b357337f00000000000000000000000000000000000000000000000000000000000000006040517f1cf993f40000000000000000000000000000000000000000000000000000000081526004016101aa9291906105ea565b60405180910390fd5b6101bd8282610334565b5050565b7f000000000000000000000000000000000000000000000000000000000000000034101561021b576040517fbd4e069500000000000000000000000000000000000000000000000000000000815260040160405180910390fd5b6000339080600181540180825580915050600190039060005260206000200160009091909190916101000a81548173ffffffffffffffffffffffffffffffffffffffff021916908373ffffffffffffffffffffffffffffffffffffffff1602179055503373ffffffffffffffffffffffffffffffffffffffff167f0805e1d667bddb8a95f0f09880cf94f403fb596ce79928d9f29b74203ba284d460405160405180910390a2565b565b60007f0000000000000000000000000000000000000000000000000000000000000000905090565b600080828154811061030257610301610613565b5b9060005260206000200160009054906101000a900473ffffffffffffffffffffffffffffffffffffffff169050919050565b5050565b6000604051905090565b600080fd5b600080fd5b6000819050919050565b61035f8161034c565b811461036a57600080fd5b50565b60008135905061037c81610356565b92915050565b600080fd5b6000601f19601f8301169050919050565b7f4e487b7100000000000000000000000000000000000000000000000000000000600052604160045260246000fd5b6103d082610387565b810181811067ffffffffffffffff821117156103ef576103ee610398565b5b80604052505050565b6000610402610338565b905061040e82826103c7565b919050565b600067ffffffffffffffff82111561042e5761042d610398565b5b602082029050602081019050919050565b600080fd5b600061045761045284610413565b6103f8565b9050808382526020820190506020840283018581111561047a5761047961043f565b5b835b818110156104a3578061048f888261036d565b84526020840193505060208101905061047c565b5050509392505050565b600082601f8301126104c2576104c1610382565b5b81356104d2848260208601610444565b91505092915050565b600080604083850312156104f2576104f1610342565b5b60006105008582860161036d565b925050602083013567ffffffffffffffff81111561052157610520610347565b5b61052d858286016104ad565b9150509250929050565b6105408161034c565b82525050565b600060208201905061055b6000830184610537565b92915050565b60006020828403121561057757610576610342565b5b60006105858482850161036d565b91505092915050565b600073ffffffffffffffffffffffffffffffffffffffff82169050919050565b60006105b98261058e565b9050919050565b6105c9816105ae565b82525050565b60006020820190506105e460008301846105c0565b92915050565b60006040820190506105ff60008301856105c0565b61060c60208301846105c0565b9392505050565b7f4e487b7100000000000000000000000000000000000000000000000000000000600052603260045260246000fdfea264697066735822122009ba315233e55799951653a9f498e6abbe6a0da12a0e1a4c272068a5a93fa59964736f6c63430008130033",
  "linkReferences": {},
  "deployedLinkReferences": {}
}